{
  "contractName": "Main",
  "abi": [
    {
      "anonymous": false,
      "inputs": [
        {
          "indexed": false,
          "internalType": "string",
          "name": "landName",
          "type": "string"
        },
        {
          "indexed": false,
          "internalType": "string",
          "name": "coordination",
          "type": "string"
        },
        {
          "indexed": false,
          "internalType": "uint256",
          "name": "area",
          "type": "uint256"
        },
        {
          "indexed": false,
          "internalType": "string",
          "name": "landmark",
          "type": "string"
        }
      ],
      "name": "NewLand",
      "type": "event"
    },
    {
      "anonymous": false,
      "inputs": [
        {
          "indexed": false,
          "internalType": "string",
          "name": "ownerName",
          "type": "string"
        },
        {
          "indexed": false,
          "internalType": "string",
          "name": "nationalId",
          "type": "string"
        }
      ],
      "name": "NewOwner",
      "type": "event"
    },
    {
      "anonymous": false,
      "inputs": [
        {
          "indexed": false,
          "internalType": "string",
          "name": "landName",
          "type": "string"
        },
        {
          "indexed": false,
          "internalType": "string",
          "name": "coordination",
          "type": "string"
        },
        {
          "indexed": false,
          "internalType": "uint256",
          "name": "area",
          "type": "uint256"
        },
        {
          "indexed": false,
          "internalType": "string",
          "name": "ownerName",
          "type": "string"
        }
      ],
      "name": "NewRegistry",
      "type": "event"
    },
    {
      "constant": true,
      "inputs": [],
      "name": "landCounter",
      "outputs": [
        {
          "internalType": "uint256",
          "name": "",
          "type": "uint256"
        }
      ],
      "payable": false,
      "stateMutability": "view",
      "type": "function"
    },
    {
      "constant": true,
      "inputs": [
        {
          "internalType": "uint256",
          "name": "",
          "type": "uint256"
        }
      ],
      "name": "lands",
      "outputs": [
        {
          "internalType": "string",
          "name": "landName",
          "type": "string"
        },
        {
          "internalType": "string",
          "name": "coordination",
          "type": "string"
        },
        {
          "internalType": "uint256",
          "name": "area",
          "type": "uint256"
        },
        {
          "internalType": "string",
          "name": "landmark",
          "type": "string"
        },
        {
          "internalType": "uint256",
          "name": "id",
          "type": "uint256"
        },
        {
          "internalType": "address",
          "name": "ownerAddress",
          "type": "address"
        }
      ],
      "payable": false,
      "stateMutability": "view",
      "type": "function"
    },
    {
      "constant": true,
      "inputs": [
        {
          "internalType": "uint256",
          "name": "",
          "type": "uint256"
        }
      ],
      "name": "landsOwnedIds",
      "outputs": [
        {
          "internalType": "uint8",
          "name": "",
          "type": "uint8"
        }
      ],
      "payable": false,
      "stateMutability": "view",
      "type": "function"
    },
    {
      "constant": true,
      "inputs": [],
      "name": "ownerCounter",
      "outputs": [
        {
          "internalType": "uint256",
          "name": "",
          "type": "uint256"
        }
      ],
      "payable": false,
      "stateMutability": "view",
      "type": "function"
    },
    {
      "constant": true,
      "inputs": [
        {
          "internalType": "uint256",
          "name": "",
          "type": "uint256"
        }
      ],
      "name": "owners",
      "outputs": [
        {
          "internalType": "uint256",
          "name": "id",
          "type": "uint256"
        },
        {
          "internalType": "string",
          "name": "fullName",
          "type": "string"
        },
        {
          "internalType": "string",
          "name": "nationalId",
          "type": "string"
        },
        {
          "internalType": "uint256",
          "name": "numberOfLandsOwned",
          "type": "uint256"
        },
        {
          "internalType": "address",
          "name": "ownerAddress",
          "type": "address"
        }
      ],
      "payable": false,
      "stateMutability": "view",
      "type": "function"
    },
    {
      "constant": false,
      "inputs": [
        {
          "internalType": "string",
          "name": "_fullName",
          "type": "string"
        },
        {
          "internalType": "string",
          "name": "_NID",
          "type": "string"
        }
      ],
      "name": "createOwner",
      "outputs": [],
      "payable": true,
      "stateMutability": "payable",
      "type": "function"
    },
    {
      "constant": false,
      "inputs": [
        {
          "internalType": "string",
          "name": "_landName",
          "type": "string"
        },
        {
          "internalType": "string",
          "name": "_coordination",
          "type": "string"
        },
        {
          "internalType": "uint256",
          "name": "_area",
          "type": "uint256"
        },
        {
          "internalType": "string",
          "name": "_landmark",
          "type": "string"
        }
      ],
      "name": "addLandToSystem",
      "outputs": [],
      "payable": true,
      "stateMutability": "payable",
      "type": "function"
    },
    {
      "constant": true,
      "inputs": [
        {
          "internalType": "uint256",
          "name": "_landId",
          "type": "uint256"
        }
      ],
      "name": "showLandById",
      "outputs": [
        {
          "components": [
            {
              "internalType": "string",
              "name": "landName",
              "type": "string"
            },
            {
              "internalType": "string",
              "name": "coordination",
              "type": "string"
            },
            {
              "internalType": "uint256",
              "name": "area",
              "type": "uint256"
            },
            {
              "internalType": "string",
              "name": "landmark",
              "type": "string"
            },
            {
              "internalType": "uint256",
              "name": "id",
              "type": "uint256"
            },
            {
              "internalType": "address",
              "name": "ownerAddress",
              "type": "address"
            }
          ],
          "internalType": "struct Main.Land",
          "name": "",
          "type": "tuple"
        }
      ],
      "payable": false,
      "stateMutability": "view",
      "type": "function"
    },
    {
      "constant": true,
      "inputs": [
        {
          "internalType": "uint256",
          "name": "_ownerId",
          "type": "uint256"
        }
      ],
      "name": "showOwnerById",
      "outputs": [
        {
          "components": [
            {
              "internalType": "uint256",
              "name": "id",
              "type": "uint256"
            },
            {
              "internalType": "string",
              "name": "fullName",
              "type": "string"
            },
            {
              "internalType": "string",
              "name": "nationalId",
              "type": "string"
            },
            {
              "internalType": "uint256",
              "name": "numberOfLandsOwned",
              "type": "uint256"
            },
            {
              "internalType": "address",
              "name": "ownerAddress",
              "type": "address"
            },
            {
              "internalType": "uint8[16]",
              "name": "ownedLandsIDs",
              "type": "uint8[16]"
            }
          ],
          "internalType": "struct Main.Owner",
          "name": "",
          "type": "tuple"
        }
      ],
      "payable": false,
      "stateMutability": "view",
      "type": "function"
    },
    {
      "constant": true,
      "inputs": [
        {
          "internalType": "uint256",
          "name": "_ownerId",
          "type": "uint256"
        }
      ],
      "name": "showOwnerLands",
      "outputs": [
        {
          "internalType": "uint8[16]",
          "name": "",
          "type": "uint8[16]"
        }
      ],
      "payable": false,
      "stateMutability": "view",
      "type": "function"
    },
    {
      "constant": false,
      "inputs": [
        {
          "internalType": "uint256",
          "name": "_landId",
          "type": "uint256"
        },
        {
          "internalType": "uint256",
          "name": "_ownerId",
          "type": "uint256"
        }
      ],
      "name": "registerLand",
      "outputs": [],
      "payable": true,
      "stateMutability": "payable",
      "type": "function"
    },
    {
      "constant": false,
      "inputs": [
        {
          "internalType": "uint256",
          "name": "_landId",
          "type": "uint256"
        },
        {
          "internalType": "uint256",
          "name": "_originalOwnerId",
          "type": "uint256"
        },
        {
          "internalType": "uint256",
          "name": "_newOwnerId",
          "type": "uint256"
        }
      ],
      "name": "transferLand",
      "outputs": [],
      "payable": true,
      "stateMutability": "payable",
      "type": "function"
    }
  ],
  "bytecode": "0x6080604052600080556000600155670de0b6b3a7640000600255670de0b6b3a7640000600355678ac7230489e8000060045534801561003d57600080fd5b506121fe8061004d6000396000f3fe6080604052600436106100a75760003560e01c8063686c099a11610064578063686c099a146101eb57806382148e6e146102075780639e29ce1814610223578063a9db979f1461024e578063d90795e01461028b578063e261f1e5146102a7576100a7565b8063025e7c27146100ac5780630f739666146100ed578063141c7b911461010957806330943fcf1461014657806341bef54814610171578063685d6505146101ae575b600080fd5b3480156100b857600080fd5b506100d360048036036100ce91908101906119e0565b6102e9565b6040516100e4959493929190611ff0565b60405180910390f35b61010760048036036101029190810190611927565b610472565b005b34801561011557600080fd5b50610130600480360361012b91908101906119e0565b6106bb565b60405161013d9190611e0a565b60405180910390f35b34801561015257600080fd5b5061015b61074f565b6040516101689190611fd5565b60405180910390f35b34801561017d57600080fd5b50610198600480360361019391908101906119e0565b610755565b6040516101a59190611fb3565b60405180910390f35b3480156101ba57600080fd5b506101d560048036036101d091908101906119e0565b61099c565b6040516101e29190611f91565b60405180910390f35b61020560048036036102009190810190611a09565b610c1a565b005b610221600480360361021c9190810190611a45565b610e42565b005b34801561022f57600080fd5b50610238611152565b6040516102459190611fd5565b60405180910390f35b34801561025a57600080fd5b50610275600480360361027091908101906119e0565b611158565b6040516102829190612051565b60405180910390f35b6102a560048036036102a091908101906118b2565b61117f565b005b3480156102b357600080fd5b506102ce60048036036102c991908101906119e0565b6113d9565b6040516102e096959493929190611ec1565b60405180910390f35b606781601081106102f657fe5b60060201600091509050806000015490806001018054600181600116156101000203166002900480601f01602080910402602001604051908101604052809291908181526020018280546001816001161561010002031660029004801561039e5780601f106103735761010080835404028352916020019161039e565b820191906000526020600020905b81548152906001019060200180831161038157829003601f168201915b505050505090806002018054600181600116156101000203166002900480601f01602080910402602001604051908101604052809291908181526020018280546001816001161561010002031660029004801561043c5780601f106104115761010080835404028352916020019161043c565b820191906000526020600020905b81548152906001019060200180831161041f57829003601f168201915b5050505050908060030154908060040160009054906101000a900473ffffffffffffffffffffffffffffffffffffffff16905085565b60106000541061048157600080fd5b6040518060c0016040528088888080601f016020809104026020016040519081016040528093929190818152602001838380828437600081840152601f19601f82011690508083019250505050505050815260200186868080601f016020809104026020016040519081016040528093929190818152602001838380828437600081840152601f19601f82011690508083019250505050505050815260200184815260200183838080601f016020809104026020016040519081016040528093929190818152602001838380828437600081840152601f19601f8201169050808301925050505050505081526020016001600054018152602001600073ffffffffffffffffffffffffffffffffffffffff168152506007600054601081106105a557fe5b6006020160008201518160000190805190602001906105c5929190611600565b5060208201518160010190805190602001906105e2929190611600565b50604082015181600201556060820151816003019080519060200190610609929190611600565b506080820151816004015560a08201518160050160006101000a81548173ffffffffffffffffffffffffffffffffffffffff021916908373ffffffffffffffffffffffffffffffffffffffff16021790555090505060008081548092919060010191905055507f5cbfbd3c8aa20d72820c731f87457b0990e9171be0f0c9bac54999c5227177e8878787878787876040516106aa9796959493929190611e61565b60405180910390a150505050505050565b6106c3611680565b6106cb611680565b606760018403601081106106db57fe5b6006020160050160108060200260405190810160405280929190826010801561073f576020028201916000905b82829054906101000a900460ff1660ff16815260200190600101906020826000010492830192600103820291508084116107085790505b5050505050905080915050919050565b60015481565b61075d6116a3565b6067600183036010811061076d57fe5b600602016040518060c001604052908160008201548152602001600182018054600181600116156101000203166002900480601f01602080910402602001604051908101604052809291908181526020018280546001816001161561010002031660029004801561081f5780601f106107f45761010080835404028352916020019161081f565b820191906000526020600020905b81548152906001019060200180831161080257829003601f168201915b50505050508152602001600282018054600181600116156101000203166002900480601f0160208091040260200160405190810160405280929190818152602001828054600181600116156101000203166002900480156108c15780601f10610896576101008083540402835291602001916108c1565b820191906000526020600020905b8154815290600101906020018083116108a457829003601f168201915b50505050508152602001600382015481526020016004820160009054906101000a900473ffffffffffffffffffffffffffffffffffffffff1673ffffffffffffffffffffffffffffffffffffffff1673ffffffffffffffffffffffffffffffffffffffff1681526020016005820160108060200260405190810160405280929190826010801561098c576020028201916000905b82829054906101000a900460ff1660ff16815260200190600101906020826000010492830192600103820291508084116109555790505b5050505050815250509050919050565b6109a46116f5565b600760018303601081106109b457fe5b600602016040518060c0016040529081600082018054600181600116156101000203166002900480601f016020809104026020016040519081016040528092919081815260200182805460018160011615610100020316600290048015610a5c5780601f10610a3157610100808354040283529160200191610a5c565b820191906000526020600020905b815481529060010190602001808311610a3f57829003601f168201915b50505050508152602001600182018054600181600116156101000203166002900480601f016020809104026020016040519081016040528092919081815260200182805460018160011615610100020316600290048015610afe5780601f10610ad357610100808354040283529160200191610afe565b820191906000526020600020905b815481529060010190602001808311610ae157829003601f168201915b5050505050815260200160028201548152602001600382018054600181600116156101000203166002900480601f016020809104026020016040519081016040528092919081815260200182805460018160011615610100020316600290048015610baa5780601f10610b7f57610100808354040283529160200191610baa565b820191906000526020600020905b815481529060010190602001808311610b8d57829003601f168201915b50505050508152602001600482015481526020016005820160009054906101000a900473ffffffffffffffffffffffffffffffffffffffff1673ffffffffffffffffffffffffffffffffffffffff1673ffffffffffffffffffffffffffffffffffffffff16815250509050919050565b600073ffffffffffffffffffffffffffffffffffffffff1660078360108110610c3f57fe5b6006020160050160009054906101000a900473ffffffffffffffffffffffffffffffffffffffff1673ffffffffffffffffffffffffffffffffffffffff16148015610c8c57506000548211155b8015610c9a57506001548111155b15610e3e57600060676001830360108110610cb157fe5b6006020160030154905060676001830360108110610ccb57fe5b6006020160040160009054906101000a900473ffffffffffffffffffffffffffffffffffffffff1660076001850360108110610d0357fe5b6006020160050160006101000a81548173ffffffffffffffffffffffffffffffffffffffff021916908373ffffffffffffffffffffffffffffffffffffffff1602179055508260676001840360108110610d5957fe5b600602016005018260108110610d6b57fe5b602091828204019190066101000a81548160ff021916908360ff16021790555060676001830360108110610d9b57fe5b60060201600301600081548092919060010191905055507fce199c5eaaa64bf8ed15e76b4ba3016e7d11fa6c6aed8cb4dd8cafaa973be6f160078460108110610de057fe5b6006020160000160078560108110610df457fe5b6006020160010160078660108110610e0857fe5b600602016002015460678660108110610e1d57fe5b60060201600101604051610e349493929190611f37565b60405180910390a1505b5050565b60676001830360108110610e5257fe5b6006020160040160009054906101000a900473ffffffffffffffffffffffffffffffffffffffff1673ffffffffffffffffffffffffffffffffffffffff1660076001850360108110610ea057fe5b6006020160050160009054906101000a900473ffffffffffffffffffffffffffffffffffffffff1673ffffffffffffffffffffffffffffffffffffffff16141561114d5760008090505b6010811015610f8b578360676001850360108110610f0457fe5b600602016005018260108110610f1657fe5b602091828204019190069054906101000a900460ff1660ff161415610f7e57600060676001850360108110610f4757fe5b600602016005018260108110610f5957fe5b602091828204019190066101000a81548160ff021916908360ff160217905550610f8b565b8080600101915050610eea565b5060676001830360108110610f9c57fe5b60060201600301600081548092919060019003919050555060676001820360108110610fc457fe5b6006020160040160009054906101000a900473ffffffffffffffffffffffffffffffffffffffff1660076001850360108110610ffc57fe5b6006020160050160006101000a81548173ffffffffffffffffffffffffffffffffffffffff021916908373ffffffffffffffffffffffffffffffffffffffff1602179055506067600182036010811061105157fe5b6006020160030160008154809291906001019190505550826067600183036010811061107957fe5b600602016005016067600184036010811061109057fe5b6006020160030154601081106110a257fe5b602091828204019190066101000a81548160ff021916908360ff1602179055507fce199c5eaaa64bf8ed15e76b4ba3016e7d11fa6c6aed8cb4dd8cafaa973be6f1600784601081106110f057fe5b600602016000016007856010811061110457fe5b600602016001016007866010811061111857fe5b60060201600201546067856010811061112d57fe5b600602016001016040516111449493929190611f37565b60405180910390a15b505050565b60005481565b60c7816010811061116557fe5b60209182820401919006915054906101000a900460ff1681565b60106001541061118e57600080fd5b6040518060c001604052806001805401815260200185858080601f016020809104026020016040519081016040528093929190818152602001838380828437600081840152601f19601f82011690508083019250505050505050815260200183838080601f016020809104026020016040519081016040528093929190818152602001838380828437600081840152601f19601f820116905080830192505050505050508152602001600081526020013373ffffffffffffffffffffffffffffffffffffffff16815260200160c76010806020026040519081016040528092919082601080156112b9576020028201916000905b82829054906101000a900460ff1660ff16815260200190600101906020826000010492830192600103820291508084116112825790505b50505050508152506067600154601081106112d057fe5b600602016000820151816000015560208201518160010190805190602001906112fa929190611600565b506040820151816002019080519060200190611317929190611600565b506060820151816003015560808201518160040160006101000a81548173ffffffffffffffffffffffffffffffffffffffff021916908373ffffffffffffffffffffffffffffffffffffffff16021790555060a082015181600501906010611380929190611741565b509050506001600081548092919060010191905055507f93e087bc3e777ceb74e38432e9c04da8b8c20939b9d76bbfe435270f3ecdb61f848484846040516113cb9493929190611e26565b60405180910390a150505050565b600781601081106113e657fe5b60060201600091509050806000018054600181600116156101000203166002900480601f0160208091040260200160405190810160405280929190818152602001828054600181600116156101000203166002900480156114885780601f1061145d57610100808354040283529160200191611488565b820191906000526020600020905b81548152906001019060200180831161146b57829003601f168201915b505050505090806001018054600181600116156101000203166002900480601f0160208091040260200160405190810160405280929190818152602001828054600181600116156101000203166002900480156115265780601f106114fb57610100808354040283529160200191611526565b820191906000526020600020905b81548152906001019060200180831161150957829003601f168201915b505050505090806002015490806003018054600181600116156101000203166002900480601f0160208091040260200160405190810160405280929190818152602001828054600181600116156101000203166002900480156115ca5780601f1061159f576101008083540402835291602001916115ca565b820191906000526020600020905b8154815290600101906020018083116115ad57829003601f168201915b5050505050908060040154908060050160009054906101000a900473ffffffffffffffffffffffffffffffffffffffff16905086565b828054600181600116156101000203166002900490600052602060002090601f016020900481019282601f1061164157805160ff191683800117855561166f565b8280016001018555821561166f579182015b8281111561166e578251825591602001919060010190611653565b5b50905061167c91906117db565b5090565b604051806102000160405280601090602082028038833980820191505090505090565b6040518060c0016040528060008152602001606081526020016060815260200160008152602001600073ffffffffffffffffffffffffffffffffffffffff1681526020016116ef611800565b81525090565b6040518060c001604052806060815260200160608152602001600081526020016060815260200160008152602001600073ffffffffffffffffffffffffffffffffffffffff1681525090565b826010601f016020900481019282156117ca5791602002820160005b8382111561179b57835183826101000a81548160ff021916908360ff160217905550926020019260010160208160000104928301926001030261175d565b80156117c85782816101000a81549060ff021916905560010160208160000104928301926001030261179b565b505b5090506117d79190611823565b5090565b6117fd91905b808211156117f95760008160009055506001016117e1565b5090565b90565b604051806102000160405280601090602082028038833980820191505090505090565b61185091905b8082111561184c57600081816101000a81549060ff021916905550600101611829565b5090565b90565b60008083601f84011261186557600080fd5b8235905067ffffffffffffffff81111561187e57600080fd5b60208301915083600182028301111561189657600080fd5b9250929050565b6000813590506118ac816121a4565b92915050565b600080600080604085870312156118c857600080fd5b600085013567ffffffffffffffff8111156118e257600080fd5b6118ee87828801611853565b9450945050602085013567ffffffffffffffff81111561190d57600080fd5b61191987828801611853565b925092505092959194509250565b60008060008060008060006080888a03121561194257600080fd5b600088013567ffffffffffffffff81111561195c57600080fd5b6119688a828b01611853565b9750975050602088013567ffffffffffffffff81111561198757600080fd5b6119938a828b01611853565b955095505060406119a68a828b0161189d565b935050606088013567ffffffffffffffff8111156119c357600080fd5b6119cf8a828b01611853565b925092505092959891949750929550565b6000602082840312156119f257600080fd5b6000611a008482850161189d565b91505092915050565b60008060408385031215611a1c57600080fd5b6000611a2a8582860161189d565b9250506020611a3b8582860161189d565b9150509250929050565b600080600060608486031215611a5a57600080fd5b6000611a688682870161189d565b9350506020611a798682870161189d565b9250506040611a8a8682870161189d565b9150509250925092565b6000611aa08383611dec565b60208301905092915050565b611ab581612108565b82525050565b611ac481612108565b82525050565b611ad3816120a0565b611add81846120db565b9250611ae882612076565b8060005b83811015611b19578151611b008782611a94565b9650611b0b836120c3565b925050600181019050611aec565b505050505050565b611b2a81612095565b611b3481846120d0565b9250611b3f8261206c565b8060005b83811015611b70578151611b578782611a94565b9650611b62836120b6565b925050600181019050611b43565b505050505050565b6000611b8483856120f7565b9350611b91838584612151565b611b9a83612193565b840190509392505050565b6000611bb0826120ab565b611bba81856120e6565b9350611bca818560208601612160565b611bd381612193565b840191505092915050565b6000611be9826120ab565b611bf381856120f7565b9350611c03818560208601612160565b611c0c81612193565b840191505092915050565b600081546001811660008114611c345760018114611c5a57611c9e565b607f6002830416611c4581876120f7565b955060ff198316865260208601935050611c9e565b60028204611c6881876120f7565b9550611c7385612080565b60005b82811015611c9557815481890152600182019150602081019050611c76565b80880195505050505b505092915050565b600060c0830160008301518482036000860152611cc38282611ba5565b91505060208301518482036020860152611cdd8282611ba5565b9150506040830151611cf26040860182611dce565b5060608301518482036060860152611d0a8282611ba5565b9150506080830151611d1f6080860182611dce565b5060a0830151611d3260a0860182611aac565b508091505092915050565b60006102a083016000830151611d566000860182611dce565b5060208301518482036020860152611d6e8282611ba5565b91505060408301518482036040860152611d888282611ba5565b9150506060830151611d9d6060860182611dce565b506080830151611db06080860182611aac565b5060a0830151611dc360a0860182611b21565b508091505092915050565b611dd78161213a565b82525050565b611de68161213a565b82525050565b611df581612144565b82525050565b611e0481612144565b82525050565b600061020082019050611e206000830184611aca565b92915050565b60006040820190508181036000830152611e41818688611b78565b90508181036020830152611e56818486611b78565b905095945050505050565b60006080820190508181036000830152611e7c81898b611b78565b90508181036020830152611e91818789611b78565b9050611ea06040830186611ddd565b8181036060830152611eb3818486611b78565b905098975050505050505050565b600060c0820190508181036000830152611edb8189611bde565b90508181036020830152611eef8188611bde565b9050611efe6040830187611ddd565b8181036060830152611f108186611bde565b9050611f1f6080830185611ddd565b611f2c60a0830184611abb565b979650505050505050565b60006080820190508181036000830152611f518187611c17565b90508181036020830152611f658186611c17565b9050611f746040830185611ddd565b8181036060830152611f868184611c17565b905095945050505050565b60006020820190508181036000830152611fab8184611ca6565b905092915050565b60006020820190508181036000830152611fcd8184611d3d565b905092915050565b6000602082019050611fea6000830184611ddd565b92915050565b600060a0820190506120056000830188611ddd565b81810360208301526120178187611bde565b9050818103604083015261202b8186611bde565b905061203a6060830185611ddd565b6120476080830184611abb565b9695505050505050565b60006020820190506120666000830184611dfb565b92915050565b6000819050919050565b6000819050919050565b60008190508160005260206000209050919050565b600060109050919050565b600060109050919050565b600081519050919050565b6000602082019050919050565b6000602082019050919050565b600081905092915050565b600081905092915050565b600082825260208201905092915050565b600082825260208201905092915050565b60006121138261211a565b9050919050565b600073ffffffffffffffffffffffffffffffffffffffff82169050919050565b6000819050919050565b600060ff82169050919050565b82818337600083830152505050565b60005b8381101561217e578082015181840152602081019050612163565b8381111561218d576000848401525b50505050565b6000601f19601f8301169050919050565b6121ad8161213a565b81146121b857600080fd5b5056fea365627a7a72315820bc354279cac187912fcd0d11029adbd187ab662a070ff61ed8c22ad8870d55d26c6578706572696d656e74616cf564736f6c63430005100040",
  "source": "pragma solidity >=0.4.21 <0.7.0;\r\npragma experimental ABIEncoderV2; // TO ALLOW RETURNING STRUCTS AND ARRAYS FROM FUNCTIONS\r\n\r\n\r\ncontract Main {\r\n\r\n    // MAX SIZE OF LANDS AND OWNERS AVAILABLE IN OUR BLOCKCHAIN\r\n    uint constant ARR_SIZE = 16;\r\n\r\n    struct Land {\r\n    string landName;\r\n    string coordination; //30.049963, 31.262597 FOR EXAMPLE\r\n    uint area;\r\n    string landmark;\r\n    uint id;\r\n    address ownerAddress;\r\n    }\r\n\r\n    struct Owner {\r\n    uint id;\r\n    string fullName;\r\n    string nationalId;\r\n    uint numberOfLandsOwned;\r\n    address ownerAddress;\r\n    uint8[ARR_SIZE] ownedLandsIDs; // ARRAY OF IDs\r\n    }\r\n\r\n    // COUNTERS OF THE NUMBER OF LANDS AND OWNERS EXISTING IN THE SYSTEM (MAX: 16)\r\n    uint public landCounter = 0;\r\n    uint public ownerCounter = 0;\r\n\r\n    // COSTS OF WRITING TO THE BLOCKCHAIN\r\n    uint addLandFee = 1 ether;\r\n    uint addOwnerFee = 1 ether;\r\n    uint registryFee = 10 ether;\r\n\r\n    // LAND ID IS THE INDEX OF THE LAND IN THE LANDS[16] ARRAY\r\n    mapping (uint => address) landToOwner;\r\n    mapping (address => uint) ownerLands;\r\n\r\n    // EVENTS FOR THE FRONT END\r\n    event NewOwner(string ownerName, string nationalId);\r\n    event NewLand(string landName, string coordination, uint area, string landmark);\r\n    event NewRegistry(string landName, string coordination, uint area, string ownerName);\r\n\r\n    Land[ARR_SIZE] public lands;\r\n    Owner[ARR_SIZE] public owners;\r\n    uint8[ARR_SIZE] public landsOwnedIds;\r\n\r\n    function createOwner(string calldata _fullName, string calldata _NID) external payable {\r\n\r\n        // VEREFICATIONS FOR THE SIZE AND PAYMENT AMOUNT\r\n        require(ownerCounter < 16);\r\n//        require(msg.value == addOwnerFee);\r\n\r\n        // ADDING THE NEW OWNER TO THE BLOCKCHAIN\r\n        owners[ownerCounter] = Owner(ownerCounter+1, _fullName, _NID, 0, msg.sender, landsOwnedIds);\r\n        ownerCounter++;\r\n\r\n        // EVENT EMITTER FOR THE FRONT END\r\n        emit NewOwner(_fullName, _NID);\r\n    }\r\n\r\n    function addLandToSystem(string calldata _landName, string calldata _coordination, uint _area, string calldata _landmark) external payable {\r\n\r\n        // VEREFICATIONS FOR THE SIZE AND PAYMENT AMOUNT\r\n        require(landCounter < 16);\r\n//        require(msg.value == addLandFee);\r\n\r\n        // ADDING THE NEW LAND TO THE BLOCKCHAIN\r\n        lands[landCounter] = Land(_landName, _coordination, _area, _landmark, landCounter + 1, address(0));\r\n        landCounter++;\r\n\r\n        // EVENT EMITTER FOR THE FRONT END\r\n        emit NewLand(_landName, _coordination, _area, _landmark);\r\n    }\r\n\r\n    function showLandById(uint _landId) public view returns(Land memory){\r\n        return lands[_landId-1];\r\n    }\r\n\r\n    function showOwnerById(uint _ownerId) public view returns(Owner memory){\r\n        return owners[_ownerId-1];\r\n    }\r\n\r\n    function showOwnerLands(uint _ownerId) public view returns(uint8[ARR_SIZE] memory){\r\n        uint8[ARR_SIZE] memory landIds = owners[_ownerId-1].ownedLandsIDs;\r\n        return landIds;\r\n    }\r\n\r\n    // REGISTER A LAND AND ASSOCIATE IT TO AN EXISTING OWNER\r\n    function registerLand(uint _landId, uint _ownerId) external payable {\r\n\r\n        //CHECK IF THE LAND DOES NOT BELONG TO SOMEONE ELSE && CHECK IF THE OWNER ID AND THE LAND ID BOTH EXIST IN THE SYSTEM\r\n        if ( (lands[_landId].ownerAddress == address(0)) && (_landId <= landCounter) && (_ownerId <= ownerCounter) ){\r\n\r\n//            require(msg.value == registryFee);\r\n            uint counter = owners[_ownerId-1].numberOfLandsOwned;\r\n            lands[_landId-1].ownerAddress =  owners[_ownerId-1].ownerAddress;\r\n            owners[_ownerId-1].ownedLandsIDs[counter] = uint8(_landId);\r\n            owners[_ownerId-1].numberOfLandsOwned++;\r\n\r\n            // EVENT EMITTER FOR THE FRONT END\r\n            emit NewRegistry(lands[_landId].landName, lands[_landId].coordination, lands[_landId].area, owners[_ownerId].fullName);\r\n        }\r\n    }\r\n\r\n    // TRANSFER LAND REGISTRY FROM AN EXISTING OWNER TO ANOTHER ONE\r\n    function transferLand(uint _landId, uint _originalOwnerId, uint _newOwnerId) external payable {\r\n\r\n        // CHECK IF THE ORIGINAL OWNER DOES INDEED HAVE THE LAND REGISTERED TO HIS/HER ADDRESS\r\n        if (lands[_landId-1].ownerAddress == owners[_originalOwnerId-1].ownerAddress) {\r\n//            require(msg.value == registryFee);\r\n\r\n            // REMOVE ORIGINAL OWNER ASSOCIATION WITH THE LAND\r\n            for (uint i = 0; i < ARR_SIZE; i++){\r\n                if(owners[_originalOwnerId-1].ownedLandsIDs[i] == _landId){\r\n                    owners[_originalOwnerId-1].ownedLandsIDs[i] = 0;\r\n                    break;\r\n                }\r\n            }\r\n            owners[_originalOwnerId-1].numberOfLandsOwned--;\r\n\r\n            // ASSOCIATE THE LAND WITH THE NEW OWNER\r\n            lands[_landId-1].ownerAddress = owners[_newOwnerId-1].ownerAddress;\r\n            owners[_newOwnerId-1].numberOfLandsOwned++;\r\n            owners[_newOwnerId-1].ownedLandsIDs[ owners[_newOwnerId-1].numberOfLandsOwned ] = uint8(_landId);\r\n\r\n            // EVENT EMITTER FOR THE FRONT END\r\n            emit NewRegistry(lands[_landId].landName, lands[_landId].coordination, lands[_landId].area, owners[_newOwnerId].fullName);\r\n        }\r\n    }\r\n\r\n}\r\n",
  "sourcePath": "C:/projects/web/Land-Registry-Blockchain/contracts/Main.sol",
  "compiler": {
    "name": "solc",
    "version": "0.5.16+commit.9c3226ce.Emscripten.clang"
  },
  "schemaVersion": "3.2.3",
  "updatedAt": "2020-08-19T21:58:46.639Z",
  "networkType": "ethereum",
  "devdoc": {
    "methods": {}
  },
  "userdoc": {
    "methods": {}
  }
}