{
  "contractName": "Main",
  "abi": [
    {
      "anonymous": false,
      "inputs": [
        {
          "indexed": false,
          "internalType": "string",
          "name": "landName",
          "type": "string"
        },
        {
          "indexed": false,
          "internalType": "string",
          "name": "coordination",
          "type": "string"
        },
        {
          "indexed": false,
          "internalType": "uint256",
          "name": "area",
          "type": "uint256"
        },
        {
          "indexed": false,
          "internalType": "string",
          "name": "landmark",
          "type": "string"
        }
      ],
      "name": "NewLand",
      "type": "event"
    },
    {
      "anonymous": false,
      "inputs": [
        {
          "indexed": false,
          "internalType": "string",
          "name": "ownerName",
          "type": "string"
        },
        {
          "indexed": false,
          "internalType": "string",
          "name": "nationalId",
          "type": "string"
        }
      ],
      "name": "NewOwner",
      "type": "event"
    },
    {
      "anonymous": false,
      "inputs": [
        {
          "indexed": false,
          "internalType": "string",
          "name": "landName",
          "type": "string"
        },
        {
          "indexed": false,
          "internalType": "string",
          "name": "coordination",
          "type": "string"
        },
        {
          "indexed": false,
          "internalType": "uint256",
          "name": "area",
          "type": "uint256"
        },
        {
          "indexed": false,
          "internalType": "string",
          "name": "ownerName",
          "type": "string"
        }
      ],
      "name": "NewRegistry",
      "type": "event"
    },
    {
      "constant": true,
      "inputs": [
        {
          "internalType": "uint256",
          "name": "",
          "type": "uint256"
        }
      ],
      "name": "lands",
      "outputs": [
        {
          "internalType": "string",
          "name": "landName",
          "type": "string"
        },
        {
          "internalType": "string",
          "name": "coordination",
          "type": "string"
        },
        {
          "internalType": "uint256",
          "name": "area",
          "type": "uint256"
        },
        {
          "internalType": "string",
          "name": "landmark",
          "type": "string"
        },
        {
          "internalType": "uint256",
          "name": "id",
          "type": "uint256"
        },
        {
          "internalType": "address",
          "name": "ownerAddress",
          "type": "address"
        }
      ],
      "payable": false,
      "stateMutability": "view",
      "type": "function"
    },
    {
      "constant": true,
      "inputs": [
        {
          "internalType": "uint256",
          "name": "",
          "type": "uint256"
        }
      ],
      "name": "landsOwnedIds",
      "outputs": [
        {
          "internalType": "uint8",
          "name": "",
          "type": "uint8"
        }
      ],
      "payable": false,
      "stateMutability": "view",
      "type": "function"
    },
    {
      "constant": true,
      "inputs": [
        {
          "internalType": "uint256",
          "name": "",
          "type": "uint256"
        }
      ],
      "name": "owners",
      "outputs": [
        {
          "internalType": "string",
          "name": "fullName",
          "type": "string"
        },
        {
          "internalType": "string",
          "name": "nationalId",
          "type": "string"
        },
        {
          "internalType": "uint256",
          "name": "numberOfLandsOwned",
          "type": "uint256"
        },
        {
          "internalType": "address",
          "name": "ownerAddress",
          "type": "address"
        },
        {
          "internalType": "uint256",
          "name": "id",
          "type": "uint256"
        }
      ],
      "payable": false,
      "stateMutability": "view",
      "type": "function"
    },
    {
      "constant": false,
      "inputs": [
        {
          "internalType": "string",
          "name": "_fullName",
          "type": "string"
        },
        {
          "internalType": "string",
          "name": "_NID",
          "type": "string"
        }
      ],
      "name": "createOwner",
      "outputs": [],
      "payable": true,
      "stateMutability": "payable",
      "type": "function"
    },
    {
      "constant": false,
      "inputs": [
        {
          "internalType": "string",
          "name": "_landName",
          "type": "string"
        },
        {
          "internalType": "string",
          "name": "_coordination",
          "type": "string"
        },
        {
          "internalType": "uint256",
          "name": "_area",
          "type": "uint256"
        },
        {
          "internalType": "string",
          "name": "_landmark",
          "type": "string"
        }
      ],
      "name": "addLandToSystem",
      "outputs": [],
      "payable": true,
      "stateMutability": "payable",
      "type": "function"
    },
    {
      "constant": true,
      "inputs": [
        {
          "internalType": "uint256",
          "name": "_landId",
          "type": "uint256"
        }
      ],
      "name": "showLandById",
      "outputs": [
        {
          "components": [
            {
              "internalType": "string",
              "name": "landName",
              "type": "string"
            },
            {
              "internalType": "string",
              "name": "coordination",
              "type": "string"
            },
            {
              "internalType": "uint256",
              "name": "area",
              "type": "uint256"
            },
            {
              "internalType": "string",
              "name": "landmark",
              "type": "string"
            },
            {
              "internalType": "uint256",
              "name": "id",
              "type": "uint256"
            },
            {
              "internalType": "address",
              "name": "ownerAddress",
              "type": "address"
            }
          ],
          "internalType": "struct Main.Land",
          "name": "",
          "type": "tuple"
        }
      ],
      "payable": false,
      "stateMutability": "view",
      "type": "function"
    },
    {
      "constant": true,
      "inputs": [
        {
          "internalType": "uint256",
          "name": "_ownerId",
          "type": "uint256"
        }
      ],
      "name": "showOwnerById",
      "outputs": [
        {
          "components": [
            {
              "internalType": "string",
              "name": "fullName",
              "type": "string"
            },
            {
              "internalType": "string",
              "name": "nationalId",
              "type": "string"
            },
            {
              "internalType": "uint256",
              "name": "numberOfLandsOwned",
              "type": "uint256"
            },
            {
              "internalType": "uint8[16]",
              "name": "ownedLandsIDs",
              "type": "uint8[16]"
            },
            {
              "internalType": "address",
              "name": "ownerAddress",
              "type": "address"
            },
            {
              "internalType": "uint256",
              "name": "id",
              "type": "uint256"
            }
          ],
          "internalType": "struct Main.Owner",
          "name": "",
          "type": "tuple"
        }
      ],
      "payable": false,
      "stateMutability": "view",
      "type": "function"
    },
    {
      "constant": true,
      "inputs": [
        {
          "internalType": "uint256",
          "name": "_ownerId",
          "type": "uint256"
        }
      ],
      "name": "showOwnerLands",
      "outputs": [
        {
          "internalType": "uint8[16]",
          "name": "",
          "type": "uint8[16]"
        }
      ],
      "payable": false,
      "stateMutability": "view",
      "type": "function"
    },
    {
      "constant": false,
      "inputs": [
        {
          "internalType": "uint256",
          "name": "_landId",
          "type": "uint256"
        },
        {
          "internalType": "uint256",
          "name": "_ownerId",
          "type": "uint256"
        }
      ],
      "name": "registerLand",
      "outputs": [],
      "payable": true,
      "stateMutability": "payable",
      "type": "function"
    },
    {
      "constant": false,
      "inputs": [
        {
          "internalType": "uint256",
          "name": "_landId",
          "type": "uint256"
        },
        {
          "internalType": "uint256",
          "name": "_originalOwnerId",
          "type": "uint256"
        },
        {
          "internalType": "uint256",
          "name": "_newOwnerId",
          "type": "uint256"
        }
      ],
      "name": "transferLand",
      "outputs": [],
      "payable": true,
      "stateMutability": "payable",
      "type": "function"
    }
  ],
  "bytecode": "0x6080604052600080556000600155670de0b6b3a7640000600255670de0b6b3a7640000600355678ac7230489e8000060045534801561003d57600080fd5b506121a58061004d6000396000f3fe6080604052600436106100915760003560e01c8063686c099a11610059578063686c099a146101aa57806382148e6e146101c6578063a9db979f146101e2578063d90795e01461021f578063e261f1e51461023b57610091565b8063025e7c27146100965780630f739666146100d7578063141c7b91146100f357806341bef54814610130578063685d65051461016d575b600080fd5b3480156100a257600080fd5b506100bd60048036036100b891908101906119a0565b61027d565b6040516100ce959493929190611e83565b60405180910390f35b6100f160048036036100ec91908101906118e7565b610406565b005b3480156100ff57600080fd5b5061011a600480360361011591908101906119a0565b61065d565b6040516101279190611dcc565b60405180910390f35b34801561013c57600080fd5b50610157600480360361015291908101906119a0565b6106f1565b6040516101649190611fd6565b60405180910390f35b34801561017957600080fd5b50610194600480360361018f91908101906119a0565b610938565b6040516101a19190611fb4565b60405180910390f35b6101c460048036036101bf91908101906119c9565b610bb6565b005b6101e060048036036101db9190810190611a05565b610dec565b005b3480156101ee57600080fd5b50610209600480360361020491908101906119a0565b61110a565b6040516102169190611ff8565b60405180910390f35b61023960048036036102349190810190611872565b611131565b005b34801561024757600080fd5b50610262600480360361025d91908101906119a0565b611399565b60405161027496959493929190611ee4565b60405180910390f35b6067816010811061028a57fe5b60060201600091509050806000018054600181600116156101000203166002900480601f01602080910402602001604051908101604052809291908181526020018280546001816001161561010002031660029004801561032c5780601f106103015761010080835404028352916020019161032c565b820191906000526020600020905b81548152906001019060200180831161030f57829003601f168201915b505050505090806001018054600181600116156101000203166002900480601f0160208091040260200160405190810160405280929190818152602001828054600181600116156101000203166002900480156103ca5780601f1061039f576101008083540402835291602001916103ca565b820191906000526020600020905b8154815290600101906020018083116103ad57829003601f168201915b5050505050908060020154908060040160009054906101000a900473ffffffffffffffffffffffffffffffffffffffff16908060050154905085565b60106000541061041557600080fd5b600254341461042357600080fd5b6040518060c0016040528088888080601f016020809104026020016040519081016040528093929190818152602001838380828437600081840152601f19601f82011690508083019250505050505050815260200186868080601f016020809104026020016040519081016040528093929190818152602001838380828437600081840152601f19601f82011690508083019250505050505050815260200184815260200183838080601f016020809104026020016040519081016040528093929190818152602001838380828437600081840152601f19601f8201169050808301925050505050505081526020016001600054018152602001600073ffffffffffffffffffffffffffffffffffffffff1681525060076000546010811061054757fe5b6006020160008201518160000190805190602001906105679291906115c0565b5060208201518160010190805190602001906105849291906115c0565b506040820151816002015560608201518160030190805190602001906105ab9291906115c0565b506080820151816004015560a08201518160050160006101000a81548173ffffffffffffffffffffffffffffffffffffffff021916908373ffffffffffffffffffffffffffffffffffffffff16021790555090505060008081548092919060010191905055507f5cbfbd3c8aa20d72820c731f87457b0990e9171be0f0c9bac54999c5227177e88787878787878760405161064c9796959493929190611e23565b60405180910390a150505050505050565b610665611640565b61066d611640565b6067600184036010811061067d57fe5b600602016003016010806020026040519081016040528092919082601080156106e1576020028201916000905b82829054906101000a900460ff1660ff16815260200190600101906020826000010492830192600103820291508084116106aa5790505b5050505050905080915050919050565b6106f9611663565b6067600183036010811061070957fe5b600602016040518060c0016040529081600082018054600181600116156101000203166002900480601f0160208091040260200160405190810160405280929190818152602001828054600181600116156101000203166002900480156107b15780601f10610786576101008083540402835291602001916107b1565b820191906000526020600020905b81548152906001019060200180831161079457829003601f168201915b50505050508152602001600182018054600181600116156101000203166002900480601f0160208091040260200160405190810160405280929190818152602001828054600181600116156101000203166002900480156108535780601f1061082857610100808354040283529160200191610853565b820191906000526020600020905b81548152906001019060200180831161083657829003601f168201915b5050505050815260200160028201548152602001600382016010806020026040519081016040528092919082601080156108c8576020028201916000905b82829054906101000a900460ff1660ff16815260200190600101906020826000010492830192600103820291508084116108915790505b505050505081526020016004820160009054906101000a900473ffffffffffffffffffffffffffffffffffffffff1673ffffffffffffffffffffffffffffffffffffffff1673ffffffffffffffffffffffffffffffffffffffff1681526020016005820154815250509050919050565b6109406116b5565b6007600183036010811061095057fe5b600602016040518060c0016040529081600082018054600181600116156101000203166002900480601f0160208091040260200160405190810160405280929190818152602001828054600181600116156101000203166002900480156109f85780601f106109cd576101008083540402835291602001916109f8565b820191906000526020600020905b8154815290600101906020018083116109db57829003601f168201915b50505050508152602001600182018054600181600116156101000203166002900480601f016020809104026020016040519081016040528092919081815260200182805460018160011615610100020316600290048015610a9a5780601f10610a6f57610100808354040283529160200191610a9a565b820191906000526020600020905b815481529060010190602001808311610a7d57829003601f168201915b5050505050815260200160028201548152602001600382018054600181600116156101000203166002900480601f016020809104026020016040519081016040528092919081815260200182805460018160011615610100020316600290048015610b465780601f10610b1b57610100808354040283529160200191610b46565b820191906000526020600020905b815481529060010190602001808311610b2957829003601f168201915b50505050508152602001600482015481526020016005820160009054906101000a900473ffffffffffffffffffffffffffffffffffffffff1673ffffffffffffffffffffffffffffffffffffffff1673ffffffffffffffffffffffffffffffffffffffff16815250509050919050565b600073ffffffffffffffffffffffffffffffffffffffff1660078360108110610bdb57fe5b6006020160050160009054906101000a900473ffffffffffffffffffffffffffffffffffffffff1673ffffffffffffffffffffffffffffffffffffffff16148015610c2857506000548211155b8015610c3657506001548111155b15610de8576004543414610c4957600080fd5b600060676001830360108110610c5b57fe5b6006020160020154905060676001830360108110610c7557fe5b6006020160040160009054906101000a900473ffffffffffffffffffffffffffffffffffffffff1660076001850360108110610cad57fe5b6006020160050160006101000a81548173ffffffffffffffffffffffffffffffffffffffff021916908373ffffffffffffffffffffffffffffffffffffffff1602179055508260676001840360108110610d0357fe5b600602016003018260108110610d1557fe5b602091828204019190066101000a81548160ff021916908360ff16021790555060676001830360108110610d4557fe5b60060201600201600081548092919060010191905055507fce199c5eaaa64bf8ed15e76b4ba3016e7d11fa6c6aed8cb4dd8cafaa973be6f160078460108110610d8a57fe5b6006020160000160078560108110610d9e57fe5b6006020160010160078660108110610db257fe5b600602016002015460678660108110610dc757fe5b60060201600001604051610dde9493929190611f5a565b60405180910390a1505b5050565b60676001830360108110610dfc57fe5b6006020160040160009054906101000a900473ffffffffffffffffffffffffffffffffffffffff1673ffffffffffffffffffffffffffffffffffffffff1660076001850360108110610e4a57fe5b6006020160050160009054906101000a900473ffffffffffffffffffffffffffffffffffffffff1673ffffffffffffffffffffffffffffffffffffffff161415611105576004543414610e9c57600080fd5b60008090505b6010811015610f43578360676001850360108110610ebc57fe5b600602016003018260108110610ece57fe5b602091828204019190069054906101000a900460ff1660ff161415610f3657600060676001850360108110610eff57fe5b600602016003018260108110610f1157fe5b602091828204019190066101000a81548160ff021916908360ff160217905550610f43565b8080600101915050610ea2565b5060676001830360108110610f5457fe5b60060201600201600081548092919060019003919050555060676001820360108110610f7c57fe5b6006020160040160009054906101000a900473ffffffffffffffffffffffffffffffffffffffff1660076001850360108110610fb457fe5b6006020160050160006101000a81548173ffffffffffffffffffffffffffffffffffffffff021916908373ffffffffffffffffffffffffffffffffffffffff1602179055506067600182036010811061100957fe5b6006020160020160008154809291906001019190505550826067600183036010811061103157fe5b600602016003016067600184036010811061104857fe5b60060201600201546010811061105a57fe5b602091828204019190066101000a81548160ff021916908360ff1602179055507fce199c5eaaa64bf8ed15e76b4ba3016e7d11fa6c6aed8cb4dd8cafaa973be6f1600784601081106110a857fe5b60060201600001600785601081106110bc57fe5b60060201600101600786601081106110d057fe5b6006020160020154606785601081106110e557fe5b600602016000016040516110fc9493929190611f5a565b60405180910390a15b505050565b60c7816010811061111757fe5b60209182820401919006915054906101000a900460ff1681565b60106001541061114057600080fd5b600354341461114e57600080fd5b6040518060c0016040528085858080601f016020809104026020016040519081016040528093929190818152602001838380828437600081840152601f19601f82011690508083019250505050505050815260200183838080601f016020809104026020016040519081016040528093929190818152602001838380828437600081840152601f19601f8201169050808301925050505050505081526020016000815260200160c7601080602002604051908101604052809291908260108015611253576020028201916000905b82829054906101000a900460ff1660ff168152602001906001019060208260000104928301926001038202915080841161121c5790505b505050505081526020013373ffffffffffffffffffffffffffffffffffffffff168152602001600180540181525060676001546010811061129057fe5b6006020160008201518160000190805190602001906112b09291906115c0565b5060208201518160010190805190602001906112cd9291906115c0565b50604082015181600201556060820151816003019060106112ef929190611701565b5060808201518160040160006101000a81548173ffffffffffffffffffffffffffffffffffffffff021916908373ffffffffffffffffffffffffffffffffffffffff16021790555060a082015181600501559050506001600081548092919060010191905055507f93e087bc3e777ceb74e38432e9c04da8b8c20939b9d76bbfe435270f3ecdb61f8484848460405161138b9493929190611de8565b60405180910390a150505050565b600781601081106113a657fe5b60060201600091509050806000018054600181600116156101000203166002900480601f0160208091040260200160405190810160405280929190818152602001828054600181600116156101000203166002900480156114485780601f1061141d57610100808354040283529160200191611448565b820191906000526020600020905b81548152906001019060200180831161142b57829003601f168201915b505050505090806001018054600181600116156101000203166002900480601f0160208091040260200160405190810160405280929190818152602001828054600181600116156101000203166002900480156114e65780601f106114bb576101008083540402835291602001916114e6565b820191906000526020600020905b8154815290600101906020018083116114c957829003601f168201915b505050505090806002015490806003018054600181600116156101000203166002900480601f01602080910402602001604051908101604052809291908181526020018280546001816001161561010002031660029004801561158a5780601f1061155f5761010080835404028352916020019161158a565b820191906000526020600020905b81548152906001019060200180831161156d57829003601f168201915b5050505050908060040154908060050160009054906101000a900473ffffffffffffffffffffffffffffffffffffffff16905086565b828054600181600116156101000203166002900490600052602060002090601f016020900481019282601f1061160157805160ff191683800117855561162f565b8280016001018555821561162f579182015b8281111561162e578251825591602001919060010190611613565b5b50905061163c919061179b565b5090565b604051806102000160405280601090602082028038833980820191505090505090565b6040518060c0016040528060608152602001606081526020016000815260200161168b6117c0565b8152602001600073ffffffffffffffffffffffffffffffffffffffff168152602001600081525090565b6040518060c001604052806060815260200160608152602001600081526020016060815260200160008152602001600073ffffffffffffffffffffffffffffffffffffffff1681525090565b826010601f0160209004810192821561178a5791602002820160005b8382111561175b57835183826101000a81548160ff021916908360ff160217905550926020019260010160208160000104928301926001030261171d565b80156117885782816101000a81549060ff021916905560010160208160000104928301926001030261175b565b505b50905061179791906117e3565b5090565b6117bd91905b808211156117b95760008160009055506001016117a1565b5090565b90565b604051806102000160405280601090602082028038833980820191505090505090565b61181091905b8082111561180c57600081816101000a81549060ff0219169055506001016117e9565b5090565b90565b60008083601f84011261182557600080fd5b8235905067ffffffffffffffff81111561183e57600080fd5b60208301915083600182028301111561185657600080fd5b9250929050565b60008135905061186c8161214b565b92915050565b6000806000806040858703121561188857600080fd5b600085013567ffffffffffffffff8111156118a257600080fd5b6118ae87828801611813565b9450945050602085013567ffffffffffffffff8111156118cd57600080fd5b6118d987828801611813565b925092505092959194509250565b60008060008060008060006080888a03121561190257600080fd5b600088013567ffffffffffffffff81111561191c57600080fd5b6119288a828b01611813565b9750975050602088013567ffffffffffffffff81111561194757600080fd5b6119538a828b01611813565b955095505060406119668a828b0161185d565b935050606088013567ffffffffffffffff81111561198357600080fd5b61198f8a828b01611813565b925092505092959891949750929550565b6000602082840312156119b257600080fd5b60006119c08482850161185d565b91505092915050565b600080604083850312156119dc57600080fd5b60006119ea8582860161185d565b92505060206119fb8582860161185d565b9150509250929050565b600080600060608486031215611a1a57600080fd5b6000611a288682870161185d565b9350506020611a398682870161185d565b9250506040611a4a8682870161185d565b9150509250925092565b6000611a608383611dae565b60208301905092915050565b611a75816120af565b82525050565b611a84816120af565b82525050565b611a9381612047565b611a9d8184612082565b9250611aa88261201d565b8060005b83811015611ad9578151611ac08782611a54565b9650611acb8361206a565b925050600181019050611aac565b505050505050565b611aea8161203c565b611af48184612077565b9250611aff82612013565b8060005b83811015611b30578151611b178782611a54565b9650611b228361205d565b925050600181019050611b03565b505050505050565b6000611b44838561209e565b9350611b518385846120f8565b611b5a8361213a565b840190509392505050565b6000611b7082612052565b611b7a818561208d565b9350611b8a818560208601612107565b611b938161213a565b840191505092915050565b6000611ba982612052565b611bb3818561209e565b9350611bc3818560208601612107565b611bcc8161213a565b840191505092915050565b600081546001811660008114611bf45760018114611c1a57611c5e565b607f6002830416611c05818761209e565b955060ff198316865260208601935050611c5e565b60028204611c28818761209e565b9550611c3385612027565b60005b82811015611c5557815481890152600182019150602081019050611c36565b80880195505050505b505092915050565b600060c0830160008301518482036000860152611c838282611b65565b91505060208301518482036020860152611c9d8282611b65565b9150506040830151611cb26040860182611d90565b5060608301518482036060860152611cca8282611b65565b9150506080830151611cdf6080860182611d90565b5060a0830151611cf260a0860182611a6c565b508091505092915050565b60006102a0830160008301518482036000860152611d1b8282611b65565b91505060208301518482036020860152611d358282611b65565b9150506040830151611d4a6040860182611d90565b506060830151611d5d6060860182611ae1565b506080830151611d71610260860182611a6c565b5060a0830151611d85610280860182611d90565b508091505092915050565b611d99816120e1565b82525050565b611da8816120e1565b82525050565b611db7816120eb565b82525050565b611dc6816120eb565b82525050565b600061020082019050611de26000830184611a8a565b92915050565b60006040820190508181036000830152611e03818688611b38565b90508181036020830152611e18818486611b38565b905095945050505050565b60006080820190508181036000830152611e3e81898b611b38565b90508181036020830152611e53818789611b38565b9050611e626040830186611d9f565b8181036060830152611e75818486611b38565b905098975050505050505050565b600060a0820190508181036000830152611e9d8188611b9e565b90508181036020830152611eb18187611b9e565b9050611ec06040830186611d9f565b611ecd6060830185611a7b565b611eda6080830184611d9f565b9695505050505050565b600060c0820190508181036000830152611efe8189611b9e565b90508181036020830152611f128188611b9e565b9050611f216040830187611d9f565b8181036060830152611f338186611b9e565b9050611f426080830185611d9f565b611f4f60a0830184611a7b565b979650505050505050565b60006080820190508181036000830152611f748187611bd7565b90508181036020830152611f888186611bd7565b9050611f976040830185611d9f565b8181036060830152611fa98184611bd7565b905095945050505050565b60006020820190508181036000830152611fce8184611c66565b905092915050565b60006020820190508181036000830152611ff08184611cfd565b905092915050565b600060208201905061200d6000830184611dbd565b92915050565b6000819050919050565b6000819050919050565b60008190508160005260206000209050919050565b600060109050919050565b600060109050919050565b600081519050919050565b6000602082019050919050565b6000602082019050919050565b600081905092915050565b600081905092915050565b600082825260208201905092915050565b600082825260208201905092915050565b60006120ba826120c1565b9050919050565b600073ffffffffffffffffffffffffffffffffffffffff82169050919050565b6000819050919050565b600060ff82169050919050565b82818337600083830152505050565b60005b8381101561212557808201518184015260208101905061210a565b83811115612134576000848401525b50505050565b6000601f19601f8301169050919050565b612154816120e1565b811461215f57600080fd5b5056fea365627a7a7231582053988d348420bf7b9bb0ba5691d4f492480c347372b0758c234d1f0f30d7a4df6c6578706572696d656e74616cf564736f6c63430005100040",
  "source": "pragma solidity >=0.4.21 <0.7.0;\r\npragma experimental ABIEncoderV2; // TO ALLOW RETURNING STRUCTS AND ARRAYS FROM FUNCTIONS\r\n\r\n\r\ncontract Main {\r\n\r\n    // MAX SIZE OF LANDS AND OWNERS AVAILABLE IN OUR BLOCKCHAIN\r\n    uint constant ARR_SIZE = 16;\r\n\r\n    struct Land {\r\n    string landName;\r\n    string coordination; //30.049963, 31.262597 FOR EXAMPLE\r\n    uint area;\r\n    string landmark;\r\n    uint id;\r\n    address ownerAddress;\r\n    }\r\n\r\n    struct Owner {\r\n    string fullName;\r\n    string nationalId;\r\n    uint numberOfLandsOwned;\r\n    uint8[ARR_SIZE] ownedLandsIDs; // ARRAY OF IDs\r\n    address ownerAddress;\r\n    uint id;\r\n    }\r\n\r\n    // COUNTERS OF THE NUMBER OF LANDS AND OWNERS EXISTING IN THE SYSTEM (MAX: 16)\r\n    uint landCounter = 0;\r\n    uint ownerCounter = 0;\r\n\r\n    // COSTS OF WRITING TO THE BLOCKCHAIN\r\n    uint addLandFee = 1 ether;\r\n    uint addOwnerFee = 1 ether;\r\n    uint registryFee = 10 ether;\r\n\r\n    // LAND ID IS THE INDEX OF THE LAND IN THE LANDS[16] ARRAY\r\n    mapping (uint => address) landToOwner;\r\n    mapping (address => uint) ownerLands;\r\n\r\n    // EVENTS FOR THE FRONT END\r\n    event NewOwner(string ownerName, string nationalId);\r\n    event NewLand(string landName, string coordination, uint area, string landmark);\r\n    event NewRegistry(string landName, string coordination, uint area, string ownerName);\r\n\r\n    Land[ARR_SIZE] public lands;\r\n    Owner[ARR_SIZE] public owners;\r\n    uint8[ARR_SIZE] public landsOwnedIds;\r\n\r\n\r\n    function createOwner(string calldata _fullName, string calldata _NID) external payable {\r\n\r\n        // VEREFICATIONS FOR THE SIZE AND PAYMENT AMOUNT \r\n        require(ownerCounter < 16);\r\n        require(msg.value == addOwnerFee);\r\n\r\n        // ADDING THE NEW OWNER TO THE BLOCKCHAIN\r\n        owners[ownerCounter] = Owner(_fullName, _NID, 0, landsOwnedIds, msg.sender, ownerCounter+1);\r\n        ownerCounter++;\r\n        \r\n        // EVENT EMITTER FOR THE FRONT END\r\n        emit NewOwner(_fullName, _NID);\r\n    }\r\n\r\n    function addLandToSystem(string calldata _landName, string calldata _coordination, uint _area, string calldata _landmark) external payable {\r\n\r\n        // VEREFICATIONS FOR THE SIZE AND PAYMENT AMOUNT \r\n        require(landCounter < 16);\r\n        require(msg.value == addLandFee);\r\n\r\n        // ADDING THE NEW LAND TO THE BLOCKCHAIN\r\n        lands[landCounter] = Land(_landName, _coordination, _area, _landmark, landCounter + 1, address(0));\r\n        landCounter++;\r\n\r\n        // EVENT EMITTER FOR THE FRONT END\r\n        emit NewLand(_landName, _coordination, _area, _landmark);\r\n    }\r\n    \r\n    function showLandById(uint _landId) public view returns(Land memory){ \r\n        return lands[_landId-1];\r\n    }\r\n    function showOwnerById(uint _ownerId) public view returns(Owner memory){\r\n        return owners[_ownerId-1];\r\n    }\r\n    \r\n    function showOwnerLands(uint _ownerId) public view returns(uint8[ARR_SIZE] memory){\r\n        uint8[ARR_SIZE] memory landIds = owners[_ownerId-1].ownedLandsIDs;\r\n        return landIds;\r\n    }\r\n\r\n    // REGISTER A LAND AND ASSOCIATE IT TO AN EXISTING OWNER\r\n    function registerLand(uint _landId, uint _ownerId) external payable {\r\n\r\n        //CHECK IF THE LAND DOES NOT BELONG TO SOMEONE ELSE && CHECK IF THE OWNER ID AND THE LAND ID BOTH EXIST IN THE SYSTEM\r\n        if ( (lands[_landId].ownerAddress == address(0)) && (_landId <= landCounter) && (_ownerId <= ownerCounter) ){ \r\n            \r\n            require(msg.value == registryFee);\r\n            uint counter = owners[_ownerId-1].numberOfLandsOwned;\r\n            lands[_landId-1].ownerAddress =  owners[_ownerId-1].ownerAddress;\r\n            owners[_ownerId-1].ownedLandsIDs[counter] = uint8(_landId);\r\n            owners[_ownerId-1].numberOfLandsOwned++;\r\n\r\n            // EVENT EMITTER FOR THE FRONT END\r\n            emit NewRegistry(lands[_landId].landName, lands[_landId].coordination, lands[_landId].area, owners[_ownerId].fullName);\r\n        }\r\n    }\r\n\r\n    // TRANSFER LAND REGISTRY FROM AN EXISTING OWNER TO ANOTHER ONE\r\n    function transferLand(uint _landId, uint _originalOwnerId, uint _newOwnerId) external payable {\r\n\r\n        // CHECK IF THE ORIGINAL OWNER DOES INDEED HAVE THE LAND REGISTERED TO HIS/HER ADDRESS\r\n        if (lands[_landId-1].ownerAddress == owners[_originalOwnerId-1].ownerAddress) {\r\n            require(msg.value == registryFee);\r\n            \r\n            // REMOVE ORIGINAL OWNER ASSOCIATION WITH THE LAND\r\n            for (uint i = 0; i < ARR_SIZE; i++){\r\n                if(owners[_originalOwnerId-1].ownedLandsIDs[i] == _landId){\r\n                    owners[_originalOwnerId-1].ownedLandsIDs[i] = 0;\r\n                    break;\r\n                }\r\n            }\r\n            owners[_originalOwnerId-1].numberOfLandsOwned--;\r\n\r\n            // ASSOCIATE THE LAND WITH THE NEW OWNER\r\n            lands[_landId-1].ownerAddress = owners[_newOwnerId-1].ownerAddress;\r\n            owners[_newOwnerId-1].numberOfLandsOwned++;\r\n            owners[_newOwnerId-1].ownedLandsIDs[ owners[_newOwnerId-1].numberOfLandsOwned ] = uint8(_landId);\r\n\r\n            // EVENT EMITTER FOR THE FRONT END\r\n            emit NewRegistry(lands[_landId].landName, lands[_landId].coordination, lands[_landId].area, owners[_newOwnerId].fullName);\r\n        }\r\n    }\r\n\r\n}",
  "sourcePath": "/Users/alaasabry/Documents/GitHub/Land-Registry-Blockchain/contracts/Main.sol",
  "compiler": {
    "name": "solc",
    "version": "0.5.16+commit.9c3226ce.Emscripten.clang"
  },
  "schemaVersion": "3.2.3",
  "updatedAt": "2020-08-14T15:06:29.991Z",
  "networkType": "ethereum",
  "devdoc": {
    "methods": {}
  },
  "userdoc": {
    "methods": {}
  }
}