{
  "contractName": "Main",
  "abi": [
    {
      "anonymous": false,
      "inputs": [
        {
          "indexed": false,
          "internalType": "string",
          "name": "landName",
          "type": "string"
        },
        {
          "indexed": false,
          "internalType": "string",
          "name": "coordination",
          "type": "string"
        },
        {
          "indexed": false,
          "internalType": "uint256",
          "name": "area",
          "type": "uint256"
        },
        {
          "indexed": false,
          "internalType": "string",
          "name": "ownerName",
          "type": "string"
        }
      ],
      "name": "NewRegistry",
      "type": "event"
    },
    {
      "constant": true,
      "inputs": [
        {
          "internalType": "uint256",
          "name": "",
          "type": "uint256"
        }
      ],
      "name": "landdsOwned",
      "outputs": [
        {
          "internalType": "string",
          "name": "landName",
          "type": "string"
        },
        {
          "internalType": "string",
          "name": "coordination",
          "type": "string"
        },
        {
          "internalType": "uint256",
          "name": "area",
          "type": "uint256"
        },
        {
          "internalType": "string",
          "name": "landmark",
          "type": "string"
        },
        {
          "internalType": "uint256",
          "name": "id",
          "type": "uint256"
        },
        {
          "internalType": "address",
          "name": "ownerAddress",
          "type": "address"
        }
      ],
      "payable": false,
      "stateMutability": "view",
      "type": "function"
    },
    {
      "constant": true,
      "inputs": [
        {
          "internalType": "uint256",
          "name": "",
          "type": "uint256"
        }
      ],
      "name": "lands",
      "outputs": [
        {
          "internalType": "string",
          "name": "landName",
          "type": "string"
        },
        {
          "internalType": "string",
          "name": "coordination",
          "type": "string"
        },
        {
          "internalType": "uint256",
          "name": "area",
          "type": "uint256"
        },
        {
          "internalType": "string",
          "name": "landmark",
          "type": "string"
        },
        {
          "internalType": "uint256",
          "name": "id",
          "type": "uint256"
        },
        {
          "internalType": "address",
          "name": "ownerAddress",
          "type": "address"
        }
      ],
      "payable": false,
      "stateMutability": "view",
      "type": "function"
    },
    {
      "constant": true,
      "inputs": [
        {
          "internalType": "uint256",
          "name": "",
          "type": "uint256"
        }
      ],
      "name": "owners",
      "outputs": [
        {
          "internalType": "string",
          "name": "fullName",
          "type": "string"
        },
        {
          "internalType": "string",
          "name": "nationalId",
          "type": "string"
        },
        {
          "internalType": "uint256",
          "name": "numberOfLandsOwned",
          "type": "uint256"
        },
        {
          "internalType": "uint256",
          "name": "id",
          "type": "uint256"
        }
      ],
      "payable": false,
      "stateMutability": "view",
      "type": "function"
    },
    {
      "constant": false,
      "inputs": [
        {
          "internalType": "string",
          "name": "_fullName",
          "type": "string"
        },
        {
          "internalType": "string",
          "name": "_NID",
          "type": "string"
        }
      ],
      "name": "_createOwner",
      "outputs": [],
      "payable": false,
      "stateMutability": "nonpayable",
      "type": "function"
    },
    {
      "constant": false,
      "inputs": [
        {
          "internalType": "string",
          "name": "_landName",
          "type": "string"
        },
        {
          "internalType": "string",
          "name": "_coordination",
          "type": "string"
        },
        {
          "internalType": "uint256",
          "name": "_area",
          "type": "uint256"
        },
        {
          "internalType": "string",
          "name": "_landmark",
          "type": "string"
        }
      ],
      "name": "addLandToSystem",
      "outputs": [],
      "payable": true,
      "stateMutability": "payable",
      "type": "function"
    },
    {
      "constant": true,
      "inputs": [
        {
          "internalType": "uint256",
          "name": "_landId",
          "type": "uint256"
        }
      ],
      "name": "showLandById",
      "outputs": [
        {
          "internalType": "string",
          "name": "",
          "type": "string"
        }
      ],
      "payable": false,
      "stateMutability": "view",
      "type": "function"
    },
    {
      "constant": false,
      "inputs": [
        {
          "internalType": "uint256",
          "name": "_landId",
          "type": "uint256"
        },
        {
          "internalType": "uint256",
          "name": "_ownerId",
          "type": "uint256"
        }
      ],
      "name": "registerLand",
      "outputs": [],
      "payable": true,
      "stateMutability": "payable",
      "type": "function"
    }
  ],
  "bytecode": "0x608060405260008055600060015567016345785d8a0000600255678ac7230489e8000060035534801561003157600080fd5b506117df806100416000396000f3fe6080604052600436106100705760003560e01c8063685d65051161004e578063685d6505146104f5578063686c099a146105a9578063e261f1e5146105e1578063f6e355be146107ae57610070565b8063025e7c27146100755780630f739666146101a3578063678108d514610396575b600080fd5b34801561008157600080fd5b506100ae6004803603602081101561009857600080fd5b810190808035906020019092919050505061097b565b604051808060200180602001858152602001848152602001838103835287818151815260200191508051906020019080838360005b838110156100fe5780820151818401526020810190506100e3565b50505050905090810190601f16801561012b5780820380516001836020036101000a031916815260200191505b50838103825286818151815260200191508051906020019080838360005b83811015610164578082015181840152602081019050610149565b50505050905090810190601f1680156101915780820380516001836020036101000a031916815260200191505b50965050505050505060405180910390f35b610394600480360360808110156101b957600080fd5b81019080803590602001906401000000008111156101d657600080fd5b8201836020820111156101e857600080fd5b8035906020019184600183028401116401000000008311171561020a57600080fd5b91908080601f016020809104026020016040519081016040528093929190818152602001838380828437600081840152601f19601f8201169050808301925050505050505091929192908035906020019064010000000081111561026d57600080fd5b82018360208201111561027f57600080fd5b803590602001918460018302840111640100000000831117156102a157600080fd5b91908080601f016020809104026020016040519081016040528093929190818152602001838380828437600081840152601f19601f820116905080830192505050505050509192919290803590602001909291908035906020019064010000000081111561030e57600080fd5b82018360208201111561032057600080fd5b8035906020019184600183028401116401000000008311171561034257600080fd5b91908080601f016020809104026020016040519081016040528093929190818152602001838380828437600081840152601f19601f820116905080830192505050505050509192919290505050610ade565b005b3480156103a257600080fd5b506104f3600480360360408110156103b957600080fd5b81019080803590602001906401000000008111156103d657600080fd5b8201836020820111156103e857600080fd5b8035906020019184600183028401116401000000008311171561040a57600080fd5b91908080601f016020809104026020016040519081016040528093929190818152602001838380828437600081840152601f19601f8201169050808301925050505050505091929192908035906020019064010000000081111561046d57600080fd5b82018360208201111561047f57600080fd5b803590602001918460018302840111640100000000831117156104a157600080fd5b91908080601f016020809104026020016040519081016040528093929190818152602001838380828437600081840152601f19601f820116905080830192505050505050509192919290505050610c15565b005b34801561050157600080fd5b5061052e6004803603602081101561051857600080fd5b8101908080359060200190929190505050610efd565b6040518080602001828103825283818151815260200191508051906020019080838360005b8381101561056e578082015181840152602081019050610553565b50505050905090810190601f16801561059b5780820380516001836020036101000a031916815260200191505b509250505060405180910390f35b6105df600480360360408110156105bf57600080fd5b810190808035906020019092919080359060200190929190505050610fb3565b005b3480156105ed57600080fd5b5061061a6004803603602081101561060457600080fd5b8101908080359060200190929190505050611180565b604051808060200180602001878152602001806020018681526020018573ffffffffffffffffffffffffffffffffffffffff1673ffffffffffffffffffffffffffffffffffffffff16815260200184810384528a818151815260200191508051906020019080838360005b838110156106a0578082015181840152602081019050610685565b50505050905090810190601f1680156106cd5780820380516001836020036101000a031916815260200191505b50848103835289818151815260200191508051906020019080838360005b838110156107065780820151818401526020810190506106eb565b50505050905090810190601f1680156107335780820380516001836020036101000a031916815260200191505b50848103825287818151815260200191508051906020019080838360005b8381101561076c578082015181840152602081019050610751565b50505050905090810190601f1680156107995780820380516001836020036101000a031916815260200191505b50995050505050505050505060405180910390f35b3480156107ba57600080fd5b506107e7600480360360208110156107d157600080fd5b81019080803590602001909291905050506113a7565b604051808060200180602001878152602001806020018681526020018573ffffffffffffffffffffffffffffffffffffffff1673ffffffffffffffffffffffffffffffffffffffff16815260200184810384528a818151815260200191508051906020019080838360005b8381101561086d578082015181840152602081019050610852565b50505050905090810190601f16801561089a5780820380516001836020036101000a031916815260200191505b50848103835289818151815260200191508051906020019080838360005b838110156108d35780820151818401526020810190506108b8565b50505050905090810190601f1680156109005780820380516001836020036101000a031916815260200191505b50848103825287818151815260200191508051906020019080838360005b8381101561093957808201518184015260208101905061091e565b50505050905090810190601f1680156109665780820380516001836020036101000a031916815260200191505b50995050505050505050505060405180910390f35b6064816010811061098857fe5b60640201600091509050806000018054600181600116156101000203166002900480601f016020809104026020016040519081016040528092919081815260200182805460018160011615610100020316600290048015610a2a5780601f106109ff57610100808354040283529160200191610a2a565b820191906000526020600020905b815481529060010190602001808311610a0d57829003601f168201915b505050505090806001018054600181600116156101000203166002900480601f016020809104026020016040519081016040528092919081815260200182805460018160011615610100020316600290048015610ac85780601f10610a9d57610100808354040283529160200191610ac8565b820191906000526020600020905b815481529060010190602001808311610aab57829003601f168201915b5050505050908060020154908060630154905084565b601060005410610aed57600080fd5b6040518060c001604052808581526020018481526020018381526020018281526020016001600054018152602001600073ffffffffffffffffffffffffffffffffffffffff16815250600460005460108110610b4557fe5b600602016000820151816000019080519060200190610b659291906115cf565b506020820151816001019080519060200190610b829291906115cf565b50604082015181600201556060820151816003019080519060200190610ba99291906115cf565b506080820151816004015560a08201518160050160006101000a81548173ffffffffffffffffffffffffffffffffffffffff021916908373ffffffffffffffffffffffffffffffffffffffff160217905550905050600080815480929190600101919050555050505050565b610c1d61164f565b82816000018190525081816020018190525060008160400181815250506106a4601080602002604051908101604052809291906000905b82821015610ecc578382600602016040518060c0016040529081600082018054600181600116156101000203166002900480601f016020809104026020016040519081016040528092919081815260200182805460018160011615610100020316600290048015610d065780601f10610cdb57610100808354040283529160200191610d06565b820191906000526020600020905b815481529060010190602001808311610ce957829003601f168201915b50505050508152602001600182018054600181600116156101000203166002900480601f016020809104026020016040519081016040528092919081815260200182805460018160011615610100020316600290048015610da85780601f10610d7d57610100808354040283529160200191610da8565b820191906000526020600020905b815481529060010190602001808311610d8b57829003601f168201915b5050505050815260200160028201548152602001600382018054600181600116156101000203166002900480601f016020809104026020016040519081016040528092919081815260200182805460018160011615610100020316600290048015610e545780601f10610e2957610100808354040283529160200191610e54565b820191906000526020600020905b815481529060010190602001808311610e3757829003601f168201915b50505050508152602001600482015481526020016005820160009054906101000a900473ffffffffffffffffffffffffffffffffffffffff1673ffffffffffffffffffffffffffffffffffffffff1673ffffffffffffffffffffffffffffffffffffffff168152505081526020019060010190610c54565b5050505081606001819052506001600054018160800181815250506000808154809291906001019190505550505050565b606060048260108110610f0c57fe5b600602016000018054600181600116156101000203166002900480601f016020809104026020016040519081016040528092919081815260200182805460018160011615610100020316600290048015610fa75780601f10610f7c57610100808354040283529160200191610fa7565b820191906000526020600020905b815481529060010190602001808311610f8a57829003601f168201915b50505050509050919050565b6003543414610fc157600080fd5b600060648260108110610fd057fe5b606402016002015490503360048460108110610fe857fe5b6006020160050160006101000a81548173ffffffffffffffffffffffffffffffffffffffff021916908373ffffffffffffffffffffffffffffffffffffffff1602179055506004836010811061103a57fe5b600602016064836010811061104b57fe5b60640201600301826010811061105d57fe5b6006020160008201816000019080546001816001161561010002031660029004611088929190611684565b50600182018160010190805460018160011615610100020316600290046110b0929190611684565b5060028201548160020155600382018160030190805460018160011615610100020316600290046110e2929190611684565b50600482015481600401556005820160009054906101000a900473ffffffffffffffffffffffffffffffffffffffff168160050160006101000a81548173ffffffffffffffffffffffffffffffffffffffff021916908373ffffffffffffffffffffffffffffffffffffffff1602179055509050506064826010811061116457fe5b6064020160020160008154809291906001019190505550505050565b6004816010811061118d57fe5b60060201600091509050806000018054600181600116156101000203166002900480601f01602080910402602001604051908101604052809291908181526020018280546001816001161561010002031660029004801561122f5780601f106112045761010080835404028352916020019161122f565b820191906000526020600020905b81548152906001019060200180831161121257829003601f168201915b505050505090806001018054600181600116156101000203166002900480601f0160208091040260200160405190810160405280929190818152602001828054600181600116156101000203166002900480156112cd5780601f106112a2576101008083540402835291602001916112cd565b820191906000526020600020905b8154815290600101906020018083116112b057829003601f168201915b505050505090806002015490806003018054600181600116156101000203166002900480601f0160208091040260200160405190810160405280929190818152602001828054600181600116156101000203166002900480156113715780601f1061134657610100808354040283529160200191611371565b820191906000526020600020905b81548152906001019060200180831161135457829003601f168201915b5050505050908060040154908060050160009054906101000a900473ffffffffffffffffffffffffffffffffffffffff16905086565b6106a481601081106113b557fe5b60060201600091509050806000018054600181600116156101000203166002900480601f0160208091040260200160405190810160405280929190818152602001828054600181600116156101000203166002900480156114575780601f1061142c57610100808354040283529160200191611457565b820191906000526020600020905b81548152906001019060200180831161143a57829003601f168201915b505050505090806001018054600181600116156101000203166002900480601f0160208091040260200160405190810160405280929190818152602001828054600181600116156101000203166002900480156114f55780601f106114ca576101008083540402835291602001916114f5565b820191906000526020600020905b8154815290600101906020018083116114d857829003601f168201915b505050505090806002015490806003018054600181600116156101000203166002900480601f0160208091040260200160405190810160405280929190818152602001828054600181600116156101000203166002900480156115995780601f1061156e57610100808354040283529160200191611599565b820191906000526020600020905b81548152906001019060200180831161157c57829003601f168201915b5050505050908060040154908060050160009054906101000a900473ffffffffffffffffffffffffffffffffffffffff16905086565b828054600181600116156101000203166002900490600052602060002090601f016020900481019282601f1061161057805160ff191683800117855561163e565b8280016001018555821561163e579182015b8281111561163d578251825591602001919060010190611622565b5b50905061164b919061170b565b5090565b6040518060a00160405280606081526020016060815260200160008152602001611677611730565b8152602001600081525090565b828054600181600116156101000203166002900490600052602060002090601f016020900481019282601f106116bd57805485556116fa565b828001600101855582156116fa57600052602060002091601f016020900482015b828111156116f95782548255916001019190600101906116de565b5b509050611707919061170b565b5090565b61172d91905b80821115611729576000816000905550600101611711565b5090565b90565b6040518061020001604052806010905b61174861175e565b8152602001906001900390816117405790505090565b6040518060c001604052806060815260200160608152602001600081526020016060815260200160008152602001600073ffffffffffffffffffffffffffffffffffffffff168152509056fea265627a7a7231582014b2a949d4e1b30b73c5ec3076ebc77e2b410b71bb6435f870758c31d2c0d7c964736f6c63430005100032",
  "source": "pragma solidity >=0.4.21 <0.7.0;\r\n\r\n\r\ncontract Main {\r\n\r\n    uint constant ARR_SIZE = 16;\r\n\r\n\r\n    struct Land {\r\n    string landName;\r\n    string coordination; //30.0478224,31.4778987\r\n    uint area;\r\n    string landmark;\r\n    uint id;\r\n\r\n    address ownerAddress;\r\n    }\r\n\r\n    struct Owner {\r\n    string fullName;\r\n    string nationalId;\r\n    uint numberOfLandsOwned;\r\n    Land[ARR_SIZE] landsOwned; // array of IDs\r\n    uint id;\r\n    }\r\n\r\n\r\n    //Max size of lands and owners available in our blockchain\r\n\r\n    uint landCounter = 0;\r\n    uint ownerCounter = 0;\r\n\r\n    uint addLandFee = 0.1 ether;\r\n    uint registryFee = 10 ether;\r\n\r\n    //event for the front-end\r\n    event NewRegistry(string landName, string coordination, uint area, string ownerName);\r\n\r\n    Land[ARR_SIZE] public lands;\r\n    Owner[ARR_SIZE] public owners;\r\n    Land[ARR_SIZE] public landdsOwned;\r\n\r\n/* \r\n    //fill owners to null\r\n    function _fillOwnersArr() private {\r\n        for(uint i = 0; i < ARR_SIZE, i++){\r\n            owners[i] = Owner(\"NULL\", \"NULL ID\"); // YNF3 A3ML CONSTRUCTOR MN 8ER MA AKTB KOL EL 7AGAT ??ظ\r\n        }\r\n    }\r\n*/\r\n\r\n    function _createOwner(string memory _fullName, string memory _NID) public {\r\n        //owners[ownerCounter] = Owner(_fullName, _NID, 0, landsOwned, landCounter + 1);\r\n        Owner memory ownr;\r\n        ownr.fullName = _fullName;\r\n        ownr.nationalId = _NID;\r\n        ownr.numberOfLandsOwned = 0;\r\n        ownr.landsOwned = landdsOwned;\r\n        ownr.id = landCounter+1;\r\n        landCounter++;\r\n        //uint ID = owners.push(Owner(_fullName, _NID, landsOwned, 99));\r\n        //owners[ID].id = ID;\r\n        //7OT EVENT \r\n    }\r\n\r\n    function addLandToSystem(string memory _landName, string memory _coordination, uint  _area, string memory _landmark) public payable {\r\n        require(landCounter < 16);\r\n        //require(msg.value == addLandFee);\r\n        lands[landCounter] = Land(_landName, _coordination, _area, _landmark, landCounter + 1, address(0));\r\n        landCounter++;\r\n        \r\n        //uint ID = lands.push(Land(_landName, _coordination, _area, _landmark, 99, address(0)));\r\n        //lands[ID].id = ID;\r\n        \r\n    }\r\n\r\n    //Land ID is the index of the land in the Lands[16] array\r\n    mapping (uint => address) landToOwner;\r\n    mapping (address => uint) ownerLands;\r\n\r\n\r\n    function showLandById(uint _landId) public view returns(string memory){\r\n        return lands[_landId].landName;\r\n    }\r\n\r\n\r\n    function registerLand(uint _landId, uint _ownerId) external payable {\r\n        require(msg.value == registryFee);\r\n        uint counter = owners[_ownerId].numberOfLandsOwned;\r\n        lands[_landId].ownerAddress = msg.sender;\r\n        owners[_ownerId].landsOwned[counter] = lands[_landId];\r\n        owners[_ownerId].numberOfLandsOwned++;\r\n\r\n\r\n        //owners[_ownerId].landsOwned.push(lands[_landId]);\r\n        //emit NewRegistry(_land.landName, _land.coordinator, _land.area, _owner.ownerName);\r\n    }\r\n\r\n    /*    \r\n    function testing() {\r\n    _createOwner(\"SAYED SAMI\", \"29938864618521\");\r\n    addLandToSystem(\"TAGAMO3\", \"2323,213213\", 50, \"KOFTA\");\r\n    }\r\n  */  \r\n}\r\n\r\n\r\n\r\n\r\n\r\n\r\n/*\r\n\r\n    function registerLand(Land _land, Owner _owner) external payable {\r\n        require(msg.value == registryFee);\r\n\r\n        _land.ownerAddress = msg.sender;\r\n        _owner.landsOwned.push(_land);\r\n\r\n        emit NewRegistry(_land.landName, _land.coordinator, _land.area, _owner.ownerName);\r\n    }\r\n*/\r\n\r\n\r\n// TESTING\r\n// 1. call _fillOwnersArr function",
  "sourcePath": "C:/Users/hp/Desktop/BlockChain/land_ownership_registry_app/contracts/Main.sol",
  "compiler": {
    "name": "solc",
    "version": "0.5.16+commit.9c3226ce.Emscripten.clang"
  },
  "schemaVersion": "3.2.2",
  "updatedAt": "2020-08-06T15:23:43.662Z",
  "networkType": "ethereum",
  "devdoc": {
    "methods": {}
  },
  "userdoc": {
    "methods": {}
  }
}